:020000040800F2
:1000000000400020751E0008151E0008171E00087D
:10001000191E00081B1E00081D1E0008000000001D
:100020000000000000000000000000001F1E00088B
:10003000211E000800000000231E0008251E0008E5
:10004000BD1E0008BD1E0008BD1E0008BD1E000824
:10005000BD1E0008BD1E0008BD1E0008BD1E000814
:10006000BD1E0008BD1E0008BD1E0008BD1E000804
:10007000BD1E0008BD1E0008BD1E0008BD1E0008F4
:10008000BD1E0008BD1E0008BD1E0008BD1E0008E4
:10009000BD1E0008BD1E0008BD1E0008BD1E0008D4
:1000A000BD1E0008BD1E0008BD1E0008BD1E0008C4
:1000B000BD1E0008BD1E0008BD1E0008BD1E0008B4
:1000C000BD1E0008BD1E0008BD1E0008BD1E0008A4
:1000D000BD1E0008BD1E0008BD1E0008BD1E000894
:1000E000BD1E0008BD1E0008BD1E0008BD1E000884
:1000F000BD1E00080000000000000000000000001D
:1001000000000000000000000000000000000000EF
:1001100000000000000000000000000000000000DF
:1001200000000000000000000000000000000000CF
:0C01300000000000000000005FF808F173
:10013C0010B5054C237833B9044B13B10448AFF315
:10014C0000800123237010BD0C0000200000000073
:10015C00181F000808B5034B1BB103490348AFF344
:10016C00008008BD0000000010000020181F0008CF
:10017C00104B1B680BB90120704710B504464FF4A7
:10018C007A70B0FBF3F30C4A1068B0FBF3F000F09C
:10019C000DFB68B90F2C01D9012010BD002221469E
:1001AC004FF0FF3000F0D0FA044B1C60002010BD63
:1001BC00012010BD000000200800002004000020D9
:1001CC0010B5032000F0AEFA0020FFF7D1FF10B1FC
:1001DC000124204610BD044601F058FDF9E700004B
:1001EC00034A1368034909680B441360704700BF46
:1001FC002800002000000020014B1868704700BF49
:10020C002800002038B50446FFF7F6FF0546B4F188
:10021C00FF3F02D0044B1B681C44FFF7EDFF401B53
:10022C008442FAD838BD00BF00000020002800F03E
:10023C00BE8070B582B00446C36C002B71D0E36CE9
:10024C0013F0100F40F0B580E36C23F4885323F0C7
:10025C00020343F00203E364574A536823F4403328
:10026C0061680B435360E3686269134394F83C1074
:10027C004FF4007292FAA2F2B2FA82F201FA02F28E
:10028C001343226A1A4394F82400022393FAA3F32B
:10029C00B3FA83F300FA03F31343626B102A02D010
:1002AC00A16B0A43134321680A6812F0400214D16F
:1002BC00A5692B43A568E66935432669B6F5807FA9
:1002CC0042D0012E3DD02A4394F82C50012D3ED023
:1002DC004D683A48284002434A6021688868384A89
:1002EC0002401A438A602269B2F5807F46D0012A07
:1002FC0044D021680A6B22F0F8720A632268916874
:10030C00304A0A40934249D0E36C23F0120343F085
:10031C001003E364236D43F001032365012002B055
:10032C0070BD036580F84830274B1A6A42F0010211
:10033C001A621B6A03F001030193019B01F0C8FCD4
:10034C007DE74FF48072BEE74FF48072BBE760B973
:10035C00206B01384FF4604595FAA5F5B5FA85F593
:10036C00A84040F400600243B2E7E06C40F020008B
:10037C00E064206D40F001002065A9E725682A6B38
:10038C0022F0F872A16A01394FF0F87090FAA0F0DF
:10039C00B0FA80F081400A432A63AFE70020206561
:1003AC00E36C23F0030343F00103E364B7E701209C
:1003BC0070470120B3E700BF00270140FF16FCFC8B
:1003CC008DF1FFC0FEFF80BF0038024003689A68C1
:1003DC0012F4806F03D09B6813F4807F1CD170B52E
:1003EC000D460446FFF708FF064623681A6812F00C
:1003FC00020F1AD1B5F1FF3FF7D025B1FFF7FCFE84
:10040C00801B8542F1D2E36C43F00403E3640023C8
:10041C0084F84830032070BDC36C43F02003C364E0
:10042C00002380F8483001207047A26912B96FF0A0
:10043C0012021A60E36C43F40073E36423689A6855
:10044C0012F0405F18D194F82420BAB91A6B12F04C
:10045C00F87F03D09B6813F4806F11D1E36C23F405
:10046C008073E364E36C13F4805F0BD1E36C43F0B3
:10047C000103E364002070BD002070BD002070BD3E
:10048C00002070BD002070BD0368986D704700009F
:10049C0030B482B00023019390F84830012B00F067
:1004AC00B980012380F848304B68062B28D80568A2
:1004BC002A6C03EB8303053B1F249C4022EA0402B5
:1004CC000C6804FA03F313432B640B68092B59D8FB
:1004DC0005686A6903EB430307249C4022EA040283
:1004EC008C6804FA03F313436B610B68103B012B0C
:1004FC006CD9002380F84830184602B030BC7047E5
:10050C000C2B0ED80568EA6B03EB8303233B1F24EB
:10051C009C4022EA04020C6804FA03F31343EB63D5
:10052C00D3E7122B0ED80568AA6B03EB8303413B70
:10053C001F249C4022EA04020C6804FA03F31343C0
:10054C00AB63C2E7182B0ED805686A6B03EB830309
:10055C005F3B1F249C4022EA04020C6804FA03F35C
:10056C0013436B63B1E705682A6B03EB83037D3B95
:10057C001F249C4022EA04020C6804FA03F3134380
:10058C002B63A2E7132B0ED805682A6903EB4303F0
:10059C001E3B07249C4022EA04028C6804FA03F3F5
:1005AC0013432B61A1E71A2B0ED80568EA6803EBFD
:1005BC0043033C3B07249C4022EA04028C6804FA67
:1005CC0003F31343EB6090E700BF8EE7124B5B68BD
:1005DC0013F4000F8DD1104A536843F40003536099
:1005EC000B68102B85D10D4B1B6802F1467202F57E
:1005FC002D3202F28332A2FB03239B0C03EB830309
:10060C005A00019202E0019B013B0193019B002BDC
:10061C00F9D16EE7022070E70027014008000020A6
:10062C0030B583B00023019303681A6812F0400FB1
:10063C0030D19A6842F001029A60184B1B68184A34
:10064C00A2FB03239B0C03EB4303019302E0019BEE
:10065C00013B0193019B002BF9D10446FFF7CCFD24
:10066C00054623681B6813F0400F11D1FFF7C4FD3A
:10067C00401B0228F5D9E36C43F01003E364236DAF
:10068C0043F001032365002384F84830012002E085
:10069C00002000E0002003B030BD00BF08000020A7
:1006AC0083DE1B4390F84830012B02D102231846FD
:1006BC00704710B50446012380F84830FFF7B0FFAF
:1006CC00034648BBE26C22F4E06222F0010242F4E1
:1006DC008072E2642268516811F4806F05D0E16C7D
:1006EC0021F4405141F48051E164E16C11F4805FDC
:1006FC0014D0216D21F006012165002184F84810E9
:10070C006FF0220111602268916811F0405F03D1F3
:10071C00916841F080419160184610BD002121651F
:10072C00EBE70000074AD36823F4E0631B041B0CBF
:10073C00000200F4E060184340F0BF6040F4003069
:10074C00D060704700ED00E030B4164BDB68C3F3AB
:10075C000223C3F10704042C28BF04241D1D062DFD
:10076C0017D9033B012505FA04F4013C21409940BB
:10077C0005FA03F3013B1340194300280BDB090175
:10078C00C9B200F1604000F5614080F8001330BC44
:10079C0070470023E6E700F00F000901C9B2024BD5
:1007AC001954F4E700ED00E014ED00E00138B0F16D
:1007BC00807F0AD2064B5860F021064A82F823103B
:1007CC000020986007221A6070470120704700BF14
:1007DC0010E000E000ED00E0F0B583B000238DE008
:1007EC00DE08083650F8264003F0070E4FEA8E0E4E
:1007FC000F2707FA0EF724EA07040F6907FA0EF71A
:10080C003C4340F8264088E086682640CF6807FACB
:10081C000EF73E438660466826EA05054E68C6F329
:10082C0000169E4035434560C5682C408D6805FA1E
:10083C000EF52C43C4604C6814F0805F5DD04A4CBC
:10084C00256A45F001052562246A04F0010401942F
:10085C00019C9D08AE1C454C54F8264003F0030641
:10086C00B6000F27B74024EA0704414FB84271D0B5
:10087C0007F58067B8426FD007F58067B8426DD036
:10088C0007F58067B8426BD007F58067B8425FD038
:10089C00052707FA06F634430235344E46F8254050
:1008AC00344C2568D44305EA04064F6817F4803F9E
:1008BC0001D042EA05062F4D2E606D6804EA05064C
:1008CC004F6817F4003F01D042EA0506294D6E60CF
:1008DC00AD6804EA05064F6817F4801F01D042EAA0
:1008EC000506244DAE60ED682C404E6816F4001FD2
:1008FC0001D042EA05041F4AD46001330A6832FA77
:10090C0003F42FD001259D402A40F6D04C68022CD0
:10091C003FF466AF122C3FF463AF06684FEA430E08
:10092C00032404FA0EF4E44326404F6807F003074F
:10093C0007FA0EF73E4306604E68771E012F7FF6CE
:10094C0063AF112E3FF460AF122E7FF46DAF5BE7F7
:10095C0004279EE700279CE701279AE7022798E7E0
:10096C00032796E703B0F0BD0038024000000140B9
:10097C0000000240000401400369194201D100202B
:10098C0070470120704712B9090481617047816179
:10099C007047000082B0224B9B6813F0F00F25D1FA
:1009AC001F4B5B6A13F0805F08D01E4B1B6803F46F
:1009BC00C053B3F5C05F14D0002118E0184A536A35
:1009CC0043F080535362536A03F080530193019BAD
:1009DC00144B1B6803F4C053516A21F080515162CF
:1009EC00E7E7B0F5404F11D0002100E0002179B9C4
:1009FC000D4A136823F001030B431360136803F0D3
:100A0C00010399420AD0012002B070470121EEE7A0
:100A1C00054A136843F004031360E9E70020F3E789
:100A2C000038024000700040003C0240002800F0FA
:100A3C006882F0B583B00446A34B9D6805F00C05A5
:100A4C009E6806F48036036813F0010F2ED0082D33
:100A5C0023D00C2D1FD06368012B46D0002B4AD11C
:100A6C00994B1A6822F480321A601A6822F4802298
:100A7C001A606368002B54D0FFF7BEFB0746924BFD
:100A8C001B6813F4003F11D1FFF7B6FBC01B6428A1
:100A9C00F5D903233FE2002EDDD08B4B1B6813F4FA
:100AAC00003F03D06368002B00F02E82236813F004
:100ABC00020F59D0042D45D00C2D41D0E368002BEA
:100ACC0000F0B8800122814B1A60FFF795FB0646B7
:100ADC007D4B1B6813F0020F40F0A380FFF78CFBDB
:100AEC00801B0228F4D9032315E2774A136843F4D8
:100AFC0080331360BDE7052B09D0734B1A6822F4C1
:100B0C0080321A601A6822F480221A60B1E76E4BA8
:100B1C001A6842F480221A601A6842F480321A6011
:100B2C00A7E7FFF769FB0746674B1B6813F4003F09
:100B3C00BCD0FFF761FBC01B6428F5D90323EAE1A5
:100B4C00002EBBD1604B1B6813F0020F04D0E3687E
:100B5C00012B01D00123DEE15B4A536823F4F853E7
:100B6C00216943EA01235360236813F0100F3CD032
:100B7C00002D40F08580544B1B6813F4007F03D08C
:100B8C00A369002B00F0C281206A4F4B5B6803F411
:100B9C006043984260D9FFF7FDFE002840F0B88111
:100BAC00494A536823F46043216A0B4353605368EA
:100BBC0023F07F43E16943EA01635360236A5B0BD3
:100BCC005A1C4FF4004393403F4A9268C2F30312FD
:100BDC003F498A5CD3403F4A13603F4B1868FFF78C
:100BEC00C7FA0346002840F09681236813F0080FDB
:100BFC0000F09D806369002B00F087800122374B49
:100C0C001A60FFF7F9FA06462F4B5B6B13F0020FD5
:100C1C0040F08D80FFF7F0FA801B0228F4D90323F3
:100C2C0079E1294A536823F4F853216943EA0123F3
:100C3C00536099E70022254B1A60FFF7DDFA064650
:100C4C00214B1B6813F0020F8ED0FFF7D5FA801BD7
:100C5C000228F5D903235EE11B4A536823F4604351
:100C6C0018435060536823F07F43E16943EA016302
:100C7C005360206AFFF78EFE00289FD001234AE1C3
:100C8C00A3697BB30122164B1A60FFF7B5FA06462F
:100C9C000D4B1B6813F4007F06D1FFF7ADFA801BD8
:100CAC000228F5D9032336E1074A536823F460433D
:100CBC00216A0B435360536823F07F43E16943EA95
:100CCC000163536091E700BF0038024000004742C7
:100CDC00301F000808000020040000208006474256
:100CEC002000474200228F4B1A60FFF785FA064618
:100CFC008D4B1B6813F4007F3FF477AFFFF77CFA42
:100D0C00801B0228F4D9032305E10022874B1A60CB
:100D1C00FFF772FA0646844B5B6B13F0020F06D09A
:100D2C00FFF76AFA801B0228F5D90323F3E0236846
:100D3C0013F0040F7AD07C4B5B6A13F0805F31D1D7
:100D4C00794B5A6A42F080525A625B6A03F08053C4
:100D5C000193019B0126764B1B6813F4807F23D0F3
:100D6C00A368012B34D0002B38D16F4B5A6B22F473
:100D7C0080725A635A6B22F480625A63A368002B08
:100D8C0042D0FFF739FA0746674B5B6B13F4007FD1
:100D9C004BD1FFF731FAC01B41F288339842F3D99B
:100DAC000323B8E00026D6E7614A136843F4807346
:100DBC001360FFF721FA07465D4B1B6813F4807F25
:100DCC00CED1FFF719FAC01B6428F5D90323A2E092
:100DDC00554A536B43F480735363CFE7052B09D00B
:100DEC00514B5A6B22F480725A635A6B22F4806214
:100DFC005A63C3E74C4B5A6B42F480625A635A6B8A
:100E0C0042F480725A63B9E7FFF7F6F90746464B8E
:100E1C005B6B13F4007F08D0FFF7EEF9C01B41F2B7
:100E2C0088339842F3D9032375E0C6B9636A002B63
:100E3C0070D00C2D4CD0022B17D000223D4B1A60D9
:100E4C00FFF7DAF90446384B1B6813F0007F3DD0EE
:100E5C00FFF7D2F9001B0228F5D903235BE0324AD5
:100E6C00536A23F080535362E0E70022314B1A603F
:100E7C00FFF7C2F905462C4B1B6813F0007F06D018
:100E8C00FFF7BAF9401B0228F5D9032343E02649A2
:100E9C008B6823F47D03A26AE06A0243206B024351
:100EAC0013438B600122234B1A60FFF7A5F904460C
:100EBC001D4B1B6813F0007F06D1FFF79DF9001B3B
:100ECC000228F5D9032326E0002324E0002322E0A6
:100EDC00012B23D0144B9B6803F48031A26A9142FE
:100EEC0001D0012317E003F47012E16A8A4201D0A9
:100EFC00012310E003F44003226B934210D0012332
:100F0C0009E0012318467047012304E0012302E0A5
:100F1C00012300E00023184603B0F0BD0123FAE7DB
:100F2C000023F8E720004742003802408006474281
:100F3C000070004060004742174B986800F00C02AC
:100F4C00082A26D00C2A0CD0042A08D0124B586838
:100F5C00C0F34230431C4FF40040984070470F4898
:100F6C007047C0F383420E498A5CC0F38150013054
:100F7C00094B9B6813F4803F05D00A4B03FB02F32B
:100F8C00B3FBF0F07047054B03FB02F3B3FBF0F03F
:100F9C0070470448704700BF003802400024F4003A
:100FAC00401F000800366E01002800F0DC8070B590
:100FBC0004466F4B1B6803F001038B4214D20129CA
:100FCC000CD06B4A136823F001030B4313601368B6
:100FDC0003F00103994207D0012070BD644A1368E5
:100FEC0043F004031360ECE7236813F0020F06D000
:100FFC00604A936823F0F003A068034393600E46A5
:10100C00236813F0010F6CD06368022B27D0032BDD
:10101C002CD0012B31D0574A126812F4007F00F00B
:10102C00A48054498A6822F0030213438B60FFF7B3
:10103C00E3F805466368022B26D0032B33D0012B33
:10104C0040D04C4B9B6813F00C0F4AD0FFF7D4F8F0
:10105C00401B41F288339842F3D9032070BD454AB6
:10106C00126812F4003FDCD1012070BD414A1268B5
:10107C0012F0007FD5D1012070BD3E4A126812F0EB
:10108C00020FCED1012070BD3A4B9B6803F00C03CC
:10109C00082B26D0FFF7B0F8401B41F2883398425A
:1010AC00F2D9032070BD334B9B6803F00C030C2B5F
:1010BC0017D0FFF7A1F8401B41F288339842F2D9C0
:1010CC00032070BD2B4B9B6803F00C03042B08D042
:1010DC00FFF792F8401B41F288339842F2D9032073
:1010EC0070BD234B1B6803F001039E4214D2012EEA
:1010FC000CD01F4A136823F00103334313601368A9
:10110C0003F001039E4207D0012070BD184A1368FA
:10111C0043F004031360ECE7236813F0040F06D0CC
:10112C00144A936823F4E063E1680B4393602368EB
:10113C0013F0080F07D00F4A936823F4605321690A
:10114C0043EAC1039360FFF7F7FE0A4B9B68C3F3B6
:10115C000313094AD35CD840084B1860084B186835
:10116C00FFF706F870BD01207047012070BD00BF6D
:10117C00003C024000380240301F000808000020EC
:10118C00040000200368B0F1804F2CD0184A904224
:10119C0029D002F58062904225D0B0F1804F12D058
:1011AC00134A90420FD002F5806290420BD002F5A8
:1011BC008032904207D002F58062904203D002F553
:1011CC008062904203D123F44073CA68134323F026
:1011DC0080030A69134303608B68C3620B688362E4
:1011EC0001234361704723F070034A681343D4E72B
:1011FC000004004030B4036A23F001030362036A65
:10120C004468826922F073020D682A4323F00203BA
:10121C008D682B43446082614A684263036230BC30
:10122C00704730B4036A23F010030362036A446806
:10123C00826922F4E6420D6842EA052223F020037B
:10124C008D6843EA0513446082614A6882630362D5
:10125C0030BC704730B4036A23F480730362036AB2
:10126C004468C26922F073020D682A4323F40073A8
:10127C008D6843EA05234460C2614A68C263036215
:10128C0030BC704730B4036A23F480530362036AA2
:10129C004468C26922F4E6420D6842EA052223F44E
:1012AC0000538D6843EA05334460C2614A680264A6
:1012BC00036230BC704710B4036A046A24F0010462
:1012CC000462846924F0F00444EA021223F00A0355
:1012DC000B438261036210BC704710B4036A23F0A5
:1012EC00100303628469036A24F4704444EA0232F2
:1012FC0023F0A00343EA01138261036210BC704720
:10130C00836823F07003194341F007018160704733
:10131C0010B4846824F47F4442EA032319430C4339
:10132C00846010BC704710B401F01F01012303FA54
:10133C0001F4036A23EA04030362036A8A40134339
:10134C00036210BC7047A8B110B5044690F8393050
:10135C005BB1022384F83930211D2068FFF712FF9E
:10136C00012384F83930002010BD80F8383000F0AB
:10137C00DFFCEEE7012070477047A8B110B50446BA
:10138C0090F839305BB1022384F83930211D206884
:10139C00FFF7F8FE012384F83930002010BD80F8E7
:1013AC003830FFF7E9FFEEE70120704710B504462F
:1013BC0001220068FFF7B7FF2268936803F0070368
:1013CC00062B03D0136843F001031360002010BDFB
:1013DC0038B590F83830012B66D00D460446012301
:1013EC0080F83830022380F839300C2A1AD8DFE81C
:1013FC0002F007191919201919193419191947006C
:10140C000068FFF7F7FE2268936943F008039361C5
:10141C002268936923F00403936122689369E96855
:10142C000B439361012384F83930002084F8380091
:10143C0038BD0068FFF7F5FE2268936943F400633A
:10144C0093612268936923F48063936122689369A2
:10145C00E96843EA01239361E4E70068FFF7FAFEC9
:10146C002268D36943F00803D3612268D36923F05F
:10147C000403D3612268D369E9680B43D361D1E7D4
:10148C000068FFF7FFFE2268D36943F40063D36161
:10149C002268D36923F48063D3612268D369E96835
:1014AC0043EA0123D361BDE7022038BD90F8383000
:1014BC00012B66D010B50446012380F83830022386
:1014CC0080F839300268936823F47F4323F0770364
:1014DC0093600B68402B4AD013D9602B3DD01ED99A
:1014EC00702B28D0B3F5005F30D1CB684A6889687F
:1014FC000068FFF70DFF2268936843F48043936004
:10150C0024E0102B06D004D9202B03D0302B01D093
:10151C001CE0DBB919462068FFF7F2FE16E0502BF1
:10152C0014D1CA6849680068FFF7C5FE50212068CD
:10153C00FFF7E6FE0AE0CB684A6889680068FFF7A7
:10154C00E7FE2268936843F077039360012384F8E5
:10155C003930002084F8380010BDCA68496800682A
:10156C00FFF7BBFE60212068FFF7CAFEEEE7CA68F2
:10157C0049680068FFF79FFE40212068FFF7C0FE16
:10158C00E4E70220704790F83830012B1CD070B47F
:10159C00012580F83850022380F8393004686268DD
:1015AC00A36822F070020E68324323F0800349686E
:1015BC000B4362600268936080F83950002380F816
:1015CC003830184670BC70470220704708B580212F
:1015DC000748FFF7D1F930B1064B1B7813B903223A
:1015EC00054B1A7008BD0022034B1A7008BD00BFD2
:1015FC00000802406C0000206D00002010B5012195
:10160C001C48FFF7B9F900BB002402211948FFF769
:10161C00B3F908B10234E4B204211648FFF7ACF96F
:10162C0008B10434E4B208211248FFF7A5F908B157
:10163C000834E4B2013C0B2C09D8DFE804F0141890
:10164C00160C080A08101208080E0124DDE7002009
:10165C0010BD022010BD032010BD042010BD0520BC
:10166C0010BD062010BD072010BD082010BD0120A4
:10167C0010BD00BF0008024008B54FF4807122482D
:10168C00FFF77AF908B1012008BD4FF400711E482C
:10169C00FFF772F908B1022008BD4FF480611A48B7
:1016AC00FFF76AF908B1032008BD4FF40061164832
:1016BC00FFF762F908B1042008BD4FF480511248BD
:1016CC00FFF75AF908B1052008BD4FF4006100F18D
:1016DC00804000F50230FFF74FF908B1062008BD35
:1016EC004FF4806100F1804000F50230FFF744F9BF
:1016FC0008B1072008BD4FF400410348FFF73CF93F
:10170C0000B908BD082008BD0000024008B558B15A
:10171C00012240210C48FFF736F901224FF4807169
:10172C000A48FFF730F908BD0022402100F1804043
:10173C0000F50130FFF727F900224FF480710348C0
:10174C00FFF721F908BD00BF000402400008024069
:10175C0008B50A4B1B780BB1032B06D14FF4007163
:10176C000748FFF709F9012800D008BD0122054BF5
:10177C001A700020FFF7CAFFF7E700BF6C000020CB
:10178C00000802406D00002030B585B06023009346
:10179C0001900024029403940A4D042269462846C1
:1017AC00FFF716FE04212846FFF700FE064D2246E1
:1017BC0069462846FFF70CFE21462846FFF7F6FD42
:1017CC0005B030BD2C0000207000002008B5084A80
:1017DC0013680133136044F62062934200D808BDAD
:1017EC000020FFF7D1FF0222024B1A70F7E700BF6F
:1017FC00680000206D00002010B582B0FFF7FEFEDF
:10180C000446FFF739FF8DF807009DF80730DBB26F
:10181C009C421CD0002202210F48FFF7B4F84FF471
:10182C00FA60FFF7B1FF0020FFF770FF02E0FFF74F
:10183C00E5FE04469DF80730DBB29C42F7D104224A
:10184C00064B1A700022064B1A6002B010BD032220
:10185C00024B1A70F9E700BF000002406D00002037
:10186C006800002010B582B00023019301220221F0
:10187C001348FFF788F86420FEF7C4FC4FF4FA70A5
:10188C00FFF782FF6420FEF7BDFC0BE00D4C2046F9
:10189C00FEF708FF05212046FEF798FD2046FEF7CF
:1018AC00F3FD0190019A40F6B7339A42EED9962097
:1018BC00FFF76AFF0322044B1A7002B010BD00BF81
:1018CC0000000240AC0000206D00002008B5012291
:1018DC0002210548FFF757F89620FFF755FF012026
:1018EC00FFF714FF08BD00BF0000024008B501223D
:1018FC0002210548FFF747F80020FFF707FF0020FB
:10190C00FFF742FF08BD00BF0000024008B50023EE
:10191C00044A1370044A13700448FEF7C3FEFFF721
:10192C00E5FF08BD6C0000206D000020AC0000201D
:10193C0008B5FFF74BFEFFF70BFF144B1A78144B4F
:10194C001B789A4220D0042B1ED8DFE803F0030941
:10195C000F151B00FFF7CAFF00220C4B1A7008BDB5
:10196C00FFF74AFF0122094B1A7008BDFFF77AFFF7
:10197C000222064B1A7008BDFFF7A8FF0322034B87
:10198C001A7008BDFFF722FF08BD00BF6C000020D5
:10199C006D0000202DE9F04188B0002403940494DC
:1019AC000594069407943E4BDA6942F00402DA611E
:1019BC00DA6902F004020092009ADA6942F001023C
:1019CC00DA61DA6902F001020192019ADA6942F0F5
:1019DC000202DA61DB6903F002030293029B314FCE
:1019EC00224602213846FEF7CEFF2F4E22464FF4F8
:1019FC0080713046FEF7C7FFDFF8B08022464021E9
:101A0C004046FEF7C0FF0F23039304940125059570
:101A1C0003A93046FEF7E0FE49F6017303930494E4
:101A2C00059403A93846FEF7D7FE022303930495C9
:101A3C000594069403A93846FEF7CEFE08230393BB
:101A4C0003230493059403A93846FEF7C5FE4FF40F
:101A5C00705303930494059403A94046FEF7BCFE0F
:101A6C004FF4686303930494059403A93046FEF77E
:101A7C00B3FE4FF48073039304950594069403A965
:101A8C003046FEF7A9FE4023039304950594069473
:101A9C0003A94046FEF7A0FE08B0BDE8F08100BFE8
:101AAC0000380240000002400008024000040240DE
:101ABC0030B58BB0002406940794089409940494D0
:101ACC0005940094019402940394174D174B2B60CA
:101ADC009F236B60AC6040F2CF73EB602C61802372
:101AEC006B612846FFF72FFC4FF48053069306A931
:101AFC002846FFF7DBFC2846FFF73FFC04940594CF
:101B0C0004A92846FFF73FFD60230093019402943B
:101B1C0004230393224669462846FFF759FC2846BE
:101B2C0000F02CF90BB030BD700000200008014013
:101B3C0030B58BB00024069407940894099404944F
:101B4C0005940094019402940394174D174B2B6049
:101B5C009F236B60AC6040F2CF73EB602C618023F1
:101B6C006B612846FFF7EFFB4FF48053069306A9F1
:101B7C002846FFF79BFC2846FFF7FFFB04940594CF
:101B8C0004A92846FFF7FFFC6023009301940294FC
:101B9C000422039269462846FFF71AFC284600F0F7
:101BAC00EDF80BB030BD00BF2C0000200008004049
:101BBC0070B584B00025019502950395124C134B1A
:101BCC0023606560A560E5604FF4807323616561F7
:101BDC00A561E561256284F824500126A66284F88B
:101BEC002C60266310236363A56384F83C60204655
:101BFC00FEF71CFB032301930296039501A92046D3
:101C0C00FEF746FC04B070BDAC000020002401407F
:101C1C0030B593B03422002105A800F06FF90024F0
:101C2C00009401940294039404940E4A136823F4D0
:101C3C00C05343F4006313600223059301250895F8
:101C4C00102309930E9405A8FEF7F0FE0F230093C2
:101C5C00019502940394049421466846FFF7A4F975
:101C6C0013B030BD0070004008B5FEF7A9FAFFF7BD
:101C7C00CFFFFFF78FFEFFF71BFFFFF759FFFFF7B3
:101C8C0097FFFFF743FEFFF753FEFCE784B00F4BC3
:101C9C005A6A42F000425A625A6A02F000420192B9
:101CAC00019A1A6A42F001021A621A6A02F00102DF
:101CBC000292029A5A6A42F080525A625B6A03F0AC
:101CCC0080530393039B04B0704700BF003802405D
:101CDC0000B589B0002303930493059306930793EF
:101CEC000268114B9A4202D009B05DF804FB03F56F
:101CFC008A331A6A42F400721A621A6A02F4007287
:101D0C000192019ADA6942F00102DA61DB6903F0AF
:101D1C0001030293029B082303930323049303A957
:101D2C000248FEF759FDDFE70024014000000240A5
:101D3C0082B003680E4A934204D00E4A93420CD0F0
:101D4C0002B070470C4B5A6A42F004025A625B6A4A
:101D5C0003F004030093009BF2E7074B1A6A42F06E
:101D6C0004021A621B6A03F004030193019BE7E768
:101D7C0000080040000801400038024000B589B05E
:101D8C000023039304930593069307930368194A5E
:101D9C00934205D0184A934216D009B05DF804FB63
:101DAC00164BDA6942F00202DA61DB6903F00203D6
:101DBC000193019B8023039302230493079303A9AC
:101DCC000F48FEF709FDE8E70C4BDA6942F0010217
:101DDC00DA61DB6903F001030293029B0423039392
:101DEC00022304930323079303A90648FEF7F4FC8C
:101DFC00D3E700BF00080040000801400038024053
:101E0C0000040240000002407047FEE7FEE7FEE7D8
:101E1C00FEE770477047704708B5FEF7E1F908BD5B
:101E2C000E4B1A6842F480721A6099680C4A0A4088
:101E3C009A601A6822F0885222F001121A601A680D
:101E4C0022F480221A609A6822F47D029A600022A1
:101E5C00DA604FF00062034B9A6070470038024022
:101E6C000CC0FF8800ED00E0002103E00B4B5B5839
:101E7C00435004310A480B4B42189A42F6D30A4A93
:101E8C0002E0002342F8043B084B9A42F9D3FFF7D7
:101E9C00C7FF00F00FF8FFF7E7FE7047541F00086C
:101EAC00000000200C0000200C000020000100208D
:101EBC00FEE7000070B500250C4E0D4CA41BA410C1
:101ECC00A54209D100F022F800250A4E0A4CA41BA9
:101EDC00A410A54205D170BD56F8253098470135A0
:101EEC00EEE756F8253098470135F2E74C1F00080D
:101EFC004C1F00084C1F0008501F000803460244EA
:101F0C00934200D1704703F8011BF9E7F8B500BF05
:101F1C00F8BC08BC9E467047F8B500BFF8BC08BCBE
:041F2C009E46704716
:101F30000000000000000000010203040607080979
:0C1F4000030406080C10182030000000FC
:041F4C006101000827
:041F50003D01000847
:0C1F5400010000001000000068FF1F00EA
:0400000508001E755C
:00000001FF
