:020000040800F2
:1000000000400020111B0008B51A0008B71A0008AC
:10001000B91A0008BB1A0008BD1A00080000000049
:10002000000000000000000000000000BF1A0008EF
:10003000C11A000800000000C31A0008C51A000811
:10004000591B0008591B0008591B0008591B0008C0
:10005000591B0008591B0008591B0008591B0008B0
:10006000591B0008591B0008591B0008591B0008A0
:10007000591B0008591B0008591B0008591B000890
:10008000591B0008591B0008591B0008591B000880
:10009000591B0008591B0008591B0008591B000870
:1000A000591B0008591B0008591B0008591B000860
:1000B000591B0008591B0008591B0008591B000850
:1000C000591B0008591B0008591B0008591B000840
:1000D000591B0008591B0008591B0008591B000830
:1000E000591B0008591B0008591B0008591B000820
:1000F000591B000800000000000000000000000084
:1001000000000000000000000000000000000000EF
:1001100000000000000000000000000000000000DF
:1001200000000000000000000000000000000000CF
:0C01300000000000000000005FF808F173
:10013C0010B5054C237833B9044B13B10448AFF315
:10014C0000800123237010BD0C0000200000000073
:10015C00B41B000808B5034B1BB103490348AFF3AC
:10016C00008008BD0000000010000020B41B000837
:10017C0038B50F4B0546186808B9012038BD4FF447
:10018C007A73B3FBF0F30B4A1068B0FBF3F000F09A
:10019C00B3FA04460028F0D10F2DEED802462946BA
:1001AC004FF0FF3000F074FA034B20461D6038BD51
:1001BC0000000020080000200400002010B50320DF
:1001CC0000F054FA0020FFF7D3FF044618B901F0F1
:1001DC00B3FB204610BD0124FBE70000034A044991
:1001EC00136809680B441360704700BF2800002097
:1001FC0000000020014B1868704700BF2800002049
:10020C00F7B5044608B9012095E0C36C73B90365D2
:10021C0080F84830564B1A6A42F001021A621B6A87
:10022C0003F001030193019B01F0A8FBE36CDB06D7
:10023C00E9D4E36C4F4A23F4885323F0020343F0D0
:10024C000203E3645368616823F440330B43536047
:10025C004FF4007090FAA0F00223B0FA80F094F8FA
:10026C00241093FAA3F3B3FA83F36569E26801FAF5
:10027C0003F32A43256A2A4394F83C5005FA00F00C
:10028C0002431343626B2569102A1CBFA06B024307
:10029C00206818BF1343026812F0400224D1A669EB
:1002AC00E7693343A668B5F5807F46EA070644D074
:1002BC00012D08BF4FF48072324394F82C60012E4C
:1002CC000DD100293BD14FF4604191FAA1F1B1FA63
:1002DC0081F6216B42F400620139B1400A43466851
:1002EC00254931400A4342608168244AB5F5807F34
:1002FC0002EA010242EA0302826001D0012D27D1F9
:10030C00056B4FF0F87292FAA2F2B2FA82F1A26A7D
:10031C00013A8A4025F0F8710A4302638168184A51
:10032C000A40934218D100202065E36C23F00303AC
:10033C0043F00103E36403B0F0BD2A46BCE7E16C73
:10034C0041F02001E164216D41F001012165C6E716
:10035C00026B22F0F872E0E7E36C23F0120343F037
:10036C001003E364236D43F0010323654BE700BFE7
:10037C000038024000270140FF16FCFC8DF1FFC045
:10038C00FEFF80BF036870B59A68044656050D469B
:10039C000BD59B68D80508D5E36C012043F02003EE
:1003AC00E364002384F8483070BDFFF723FF064652
:1003BC0023681A6892070ED5A26912B96FF012025F
:1003CC001A60E26C42F40072E2649A6812F0405FC8
:1003DC0013D0002070BD691CEBD045B9E36C032031
:1003EC0043F00403E364002384F8483070BDFFF746
:1003FC0001FF801B8542DBD2F0E794F82420002A11
:10040C00E7D11A6B12F0F87F02D09B685B05E0D441
:10041C00E36C23F48073E364E06C10F48050D8D167
:10042C00E36C43F00103E36470BD0368986D70479F
:10043C00002373B5019390F84830012B00F09C8099
:10044C0001234D6880F84830062D04684FEA850377
:10045C000A6821D82B441F25266C053B9D4026EAB3
:10046C00050502FA03F32B432364092A4AD807250E
:10047C00636902EB42068968B54023EA0503B14083
:10048C000B436361A2F11003012B5DD9002380F8AB
:10049C004830184602B070BD0C2D0BD82B441F25CC
:1004AC00E66B233B9D4026EA050502FA03F32B433A
:1004BC00E363DAE7122D0BD82B441F25A66B413BC7
:1004CC009D4026EA050502FA03F32B43A363CCE710
:1004DC00182D0BD82B441F25666B5F3B9D4026EADD
:1004EC00050502FA03F32B436363BEE72B441F2578
:1004FC00266B7D3B9D4026EA050502FA03F32B4350
:10050C002363B2E7132A0DD8072602EB42052369B1
:10051C001E3D8968AE4023EA060301FA05F52B431C
:10052C002361AFE71A2A0DD8072602EB4205E368D0
:10053C003C3D8968AE4023EA060301FA05F52B43DE
:10054C00E3609FE700BF9DE70C4B596809029DD4FF
:10055C005968102A41F40001596097D1084B094A97
:10056C001B68B3FBF2F20A2353430193019B002B4C
:10057C008CD0019B013BF8E702208BE70027014060
:10058C000800002040420F00002373B5019303685C
:10059C0004461A68520602D5002002B070BD9A6853
:1005AC0042F001029A60134B134A1B68B3FBF2F33F
:1005BC0003EB43030193019BC3B9FFF71BFE0646F4
:1005CC0023681D6815F04005E6D1FFF713FE801B6C
:1005DC000228F5D9E36C84F8485043F01003E36427
:1005EC00236D012043F001032365D6E7019B013BFA
:1005FC00E0E700BF0800002040420F0090F84830B0
:10060C0010B5012B04462ED0012380F84830FFF79B
:10061C00BBFF48BBE36C23F4E06323F0010343F41A
:10062C008073E36423685A68520541BFE26C22F47C
:10063C00405242F48052E264E26C12F480521CBFCD
:10064C00226D22F006022265002284F848206FF009
:10065C0022021A609A6812F0405F05D19A6842F043
:10066C0080429A6010BD022010BD0000074A0002B3
:10067C00D36800F4E06023F4E0631B041B0C43F02C
:10068C00BF6343F400330343D360704700ED00E0D5
:10069C00174B30B5DC68C4F30224C4F10703251DE5
:1006AC00042B28BF0423062D4FF0010598BF00240E
:1006BC0005FA03F303F1FF3388BF033C1940A14053
:1006CC0005FA04F4013C2240002842EA01024FEAF8
:1006DC000212A9BF00F16040064BD2B200F5614096
:1006EC00BBBF00F00F00D2B280F800231A5430BD0B
:1006FC0000ED00E014ED00E00138B0F1807F0AD28B
:10070C00F021064B064A586082F82310002007227D
:10071C0098601A6070470120704700BF10E000E03D
:10072C0000ED00E000232DE9F04F624AD1F8008083
:10073C00DFF8889185B038FA03F402D105B0BDE832
:10074C00F08F01249C4018EA0406019400F0A78065
:10075C004C6824F0100ABAF1020F16D14FF00F0EAC
:10076C004FEAD30C00EB8C0C03F0070BDCF8205099
:10077C004FEA8B0B0EFA0BFE25EA0E0E0D6905FAED
:10078C000BF545EA0E05CCF8205003254FEA430C37
:10079C0005FA0CF5ED43D0F800B004F0030E0BEAAB
:1007AC00050B0EFA0CFE0AF1FF3A4EEA0B0EBAF1EB
:1007BC00010FC0F800E016D8D0F808E0CF6805EAC1
:1007CC000E0E07FA0CFA4AEA0E0EC0F808E0D0F842
:1007DC0004E0019F2EEA0707C4F3001E0EFA03FE85
:1007EC004EEA07074760C7683D408F6807FA0CF769
:1007FC003D43C560E50052D54FF00F0ED9F820509F
:10080C0023F0030745F00105C9F82050D9F8205012
:10081C0007F1804705F00105039507F5803703F0D4
:10082C00030C039D4FEA8C0CBD680EFA0CFE25EAF6
:10083C000E0E214DA84234D005F58065A84232D069
:10084C0005F58065A84230D005F58065A8422ED00C
:10085C0005F58065A84214BF0525042505FA0CF59D
:10086C0045EA0E05BD60F743156814F4803F0CBFD4
:10087C003D4035431560556814F4003F0CBF3D40B6
:10088C0035435560956814F4801F0CBF3D403543CB
:10089C009560D568A40254BF3D403543D560013303
:1008AC0049E70025DAE70125D8E70225D6E7032535
:1008BC00D4E700BF000401400000024000380240B1
:1008CC000369194214BF0120002070470AB18161ED
:1008DC0070470904FBE700001C4B82B09A6812F0C9
:1008EC00F00F0CD000221A490B6823F001031343BC
:1008FC000B60086800F00100504002B070475A6A63
:10090C00144912F0805F0FD00A6802F4C052B2F59D
:10091C00C05FE7D1B0F5404FE4D10D4A136843F006
:10092C00040313600122DEE75A6A42F080525A62D5
:10093C005A6A02F080520192019A0A68596A02F4CA
:10094C00C05221F080515962E1E700BF00380240EB
:10095C00003C0240007000402DE9F743044608B902
:10096C00012077E0A04B02689E689F68D00706F0D4
:10097C000C0607F480374BD42368990700F192805A
:10098C002368D80636D5002E40F0DC80964D2B68B7
:10099C00990502D5A369002BE2D06B68206A03F499
:1009AC006043984240F2BC80FFF796FF0028D7D1F5
:1009BC006B68226A23F4604313436B606B68E269D3
:1009CC0023F07F4343EA02636B60874B9968236A89
:1009DC005B0B5A1C4FF400439340C1F30312834941
:1009EC008A5CD340824A1360824B1868FFF7C0FBC5
:1009FC0000282FD12368180700F1D38023685907EA
:100A0C0000F10081606A002840F06A81002021E03A
:100A1C00082E02D00C2E07D137B11B689A03ABD528
:100A2C006368002BA8D19BE763686F4D012B14D131
:100A3C002B6843F480332B60FFF7DCFB80466A4D58
:100A4C002B689B0398D4FFF7D5FBA0EB0800642818
:100A5C00F6D9032003B0BDE8F083ABB92B6823F4BF
:100A6C0080332B602B6823F480232B60FFF7C2FBB1
:100A7C0080462B6898037FF57FAFFFF7BBFBA0EB9D
:100A8C0008006428F5D9E4E7052B2B6803D143F45F
:100A9C0080232B60CCE723F480332B602B6823F46A
:100AAC008023C8E7042E02D00C2E10D17FB94E4BF8
:100ABC001A68910703D5E268012A7FF451AF5A688E
:100ACC00216922F4F85242EA01225A6058E7E2689E
:100ADC00494BB2B101221A60FFF78CFB0746424D1D
:100AEC002B689A0707D56B68226923F4F85343EAFD
:100AFC0002236B6044E7FFF77DFBC01B0228EFD994
:100B0C00A7E71A60FFF776FB0746374D2B689B0764
:100B1C007FF536AFFFF76EFBC01B0228F6D998E7BE
:100B2C006B6823F4604303436B606B68E26923F0EA
:100B3C007F4343EA02636B60FFF7CEFE00283FF46D
:100B4C0044AF0DE7A2692D4BE2B101221A60FFF709
:100B5C0051FB0746244D2B689A050DD56B68226A0C
:100B6C0023F4604313436B606B68E26923F07F43AB
:100B7C0043EA02636B603DE7FFF73CFBC01B0228B6
:100B8C00E9D966E71A60FFF735FB0746164D2B6867
:100B9C009B057FF52FAFFFF72DFBC01B0228F6D965
:100BAC0057E76269164B7AB101221A60FFF722FBF4
:100BBC0007460D4D6B6B9A073FF520AFFFF71AFBFD
:100BCC00C01B0228F6D944E71A60FFF713FB07464F
:100BDC00054D6B6B9B077FF511AFFFF70BFBC01B34
:100BEC000228F6D935E700BF00380240CC1B0008BC
:100BFC00080000200400002000004742200047426B
:100C0C0080064742604B5A6AD00029D401275A6AA1
:100C1C0042F080525A625B6A03F080530193019B4D
:100C2C005A4D2B68D9051DD5A368574D012B2AD1D8
:100C3C006B6B43F480736B63FFF7DCFA41F288351E
:100C4C008146DFF84481D8F834309B0541D5002F1C
:100C5C003FF4D8AE4C4A536A23F080535362D1E62A
:100C6C000027DDE72B6843F480732B60FFF7C2FA93
:100C7C0080462B68DA05D7D4FFF7BCFAA0EB080046
:100C8C006428F6D9E5E6B3B96B6B41F2883923F4E5
:100C9C0080736B636B6B23F480636B63FFF7AAFA4F
:100CAC0080466B6B9805D2D5FFF7A4FAA0EB080031
:100CBC004845F6D9CDE6052B6B6B03D143F4806325
:100CCC006B63B5E723F480736B636B6B23F4806306
:100CDC00B1E7FFF78FFAA0EB0900A842B3D9B8E649
:100CEC000C2E39D000232A4D02282B6026D1FFF779
:100CFC0081FA0746244E3368990119D4A36AE16A34
:100D0C00B2680B4322F47D021343226B1E4C134337
:100D1C00B36001232B60FFF76DFA054623689A0137
:100D2C003FF574AEFFF766FA401B0228F6D990E641
:100D3C00FFF760FAC01B0228DDD98AE6FFF75AFAE2
:100D4C000546114C23689B017FF560AEFFF752FA04
:100D5C00401B0228F6D97CE601283FF47BAE0A4BF7
:100D6C009868A36A00F480329A427FF4F9ADE26A83
:100D7C0000F4701393427FF4F3AD236B00F4400046
:100D8C00C01A18BF012065E6003802400070004010
:100D9C0060004742124A936803F00C01082905D001
:100DAC000C2905D0042913D10E4870470E48704702
:100DBC000E48C3F38341415CC3F381509368013007
:100DCC00DB034CBF084B074B4B43B3FBF0F07047B6
:100DDC005068C0F34230431C4FF4004098407047B9
:100DEC00003802400024F40000366E01DC1B0008C1
:100DFC002DE9F0410D46044610B90120BDE8F08103
:100E0C00574B1A6802F001028A422AD322689607CD
:100E1C0038D4D0073ED4524B1A6802F001029542E6
:100E2C00C0F08D802268510700F19280130707D51E
:100E3C004C4A2169936823F4605343EAC1039360DD
:100E4C00FFF7A8FFBDE8F041464B474A9B68C3F348
:100E5C000313D35CD840454B1860454B1868FFF71B
:100E6C0087B9012902BF1A6842F004021A601A6895
:100E7C0022F001020A431A601B6803F00103994235
:100E8C00BBD1C3E73749A0688B6823F0F003034359
:100E9C008B60BEE76168334B02291A681DD112F4CE
:100EAC00003FAAD09A682F4F22F003020A439A609F
:100EBC00FFF7A0F963680646022B41F2883819D176
:100ECC00BB6803F00C03082BA5D0FFF793F9801B2C
:100EDC004045F5D90320BDE8F081032902D112F079
:100EEC00007FDEE7012902D112F0020FD9E712F4DC
:100EFC00007FD6E7032B0AD1BB6803F00C030C2B45
:100F0C0089D0FFF777F9801B4045F5D9E2E7012B33
:100F1C0010D1BB6803F00C03042B3FF47CAFFFF73C
:100F2C0069F9801B4045F4D9D4E7FFF763F9801BBE
:100F3C004045CFD8BB6813F00C0FF6D16BE71A689D
:100F4C0022F001021A601B68DA073FF556AF69E719
:100F5C000449E0688B6823F4E06303438B6065E726
:100F6C00003C024000380240CC1B00080800002066
:100F7C0004000020B0F1804F036806D0184A90425C
:100F8C0003D002F5806290420ED14A6823F07003C0
:100F9C00B0F1804F43EA020311D0114A90420ED0B7
:100FAC0002F5806290420AD00E4A904207D002F5B8
:100FBC008062904203D002F58062904203D1CA68ED
:100FCC0023F4407313430A6923F080031343036033
:100FDC008B68C3620B68836201234361704700BF57
:100FEC000004004000080140036A30B523F00103FF
:100FFC000362036A446882690D6822F073022A4313
:10100C008D6823F00203446082614A682B4342637B
:10101C00036230BD036A30B523F010030362036A28
:10102C00446882690D6822F4E64242EA05228D6822
:10103C0023F02003446082614A6843EA051382630B
:10104C00036230BD10B50124036A01F01F018C400E
:10105C0023EA04030362036A8A401A43026210BD46
:10106C0010B50446A0B190F8393003F0FF021BB95B
:10107C0080F8382000F0B0FC0223206884F8393066
:10108C00211DFFF777FF0123002084F8393010BDB4
:10109C00012010BD704710B50446A0B190F839304E
:1010AC0003F0FF021BB980F83820FFF7F3FF02238F
:1010BC00206884F83930211DFFF75CFF01230020E4
:1010CC0084F8393010BD012010BD10B50446012242
:1010DC000068FFF7B7FF236800209A6802F0070248
:1010EC00062A1EBF1A6842F001021A6010BDFFF7F3
:1010FC00ECBF90F8383070B5012B05460C464FF01C
:10110C00020025D0012385F8390085F838300C2AE7
:10111C0018D8DFE802F0071717171E1717172F1725
:10112C00171752002868FFF75FFF2B68C9689A6988
:10113C0042F008029A619A6922F004029A619A6953
:10114C000A439A610123002085F8393085F838006C
:10115C0070BD2868FFF75EFF2B68C9689A6942F476
:10116C0000629A619A6922F480629A619A6942EAF1
:10117C000122E6E72B6826681A6A22F480721A624A
:10118C001A6A5868D96922F4007221F0730131434C
:10119C00A6685860D961616842EA0622D9631A626E
:1011AC00DA69E16842F00802DA61DA6922F00402D5
:1011BC00DA61DA690A43DA61C4E72B6826681A6ACD
:1011CC0022F480521A621A6A5868D96922F40052C1
:1011DC0021F4E64141EA0621A6685860D9616168AC
:1011EC0042EA063219641A62DA69E16842F4006272
:1011FC00DA61DA6922F48062DA61DA6942EA0122A0
:10120C00D9E790F8383070B5012B4FF0020319D0A4
:10121C00012280F83930036880F838209A6822F46B
:10122C007F4222F077029A600A68402A6FD016D863
:10123C00102A0DD008D85AB1012380F83930002378
:10124C0080F83830184670BD202A01D0302AF3D1EE
:10125C00996842F0070221F070010A433DE0602AD0
:10126C003DD018D8502AE7D14C68CE68196A1D6A4F
:10127C0021F00A0125F001051D629A69214322F033
:10128C00F00242EA06129A6119629A6822F0700220
:10129C0042F0570221E0702A11D0B2F5005FCBD199
:1012AC008A684D689C68C9682A4324F47F4442EAE2
:1012BC00012222439A609A6842F480420DE08A68C7
:1012CC004D689C68C9682A4324F47F4442EA012291
:1012DC0022439A609A6842F077029A60ACE71C6AE3
:1012EC004D6824F01004CE681C6299691A6A21F4C6
:1012FC00704122F0A00242EA051241EA06319961DE
:10130C001A629A6822F0700242F06702E5E74C68B4
:10131C00CE68196A1D6A21F00A0125F001051D62CB
:10132C009A69214322F0F00242EA06129A6119628C
:10133C009A6822F0700242F04702CEE790F83830FB
:10134C0030B5012B4FF0020314D0046880F839300B
:10135C006268A3680D68496822F0700223F080036C
:10136C000B432A436260A360012380F839300023C9
:10137C0080F83830184630BD08B580210648FFF794
:10138C009FFA10B9054B187008BD054B1B7813B9A3
:10139C000322024B1A7008BD0008024069000020AD
:1013AC006800002010B501211148FFF789FA0221CD
:1013BC0004460F48FFF784FAB8B9003418BF01246B
:1013CC0004210B48FFF77CFA08210028084818BFB5
:1013DC000124FFF775FA002818BF0124013CE4B280
:1013EC000B2C94BF0720002010BD0124E8E700BFA0
:1013FC000008024008B54FF480712048FFF760FAEE
:10140C0068BB4FF400711D48FFF75AFA48BB4FF404
:10141C0080611A48FFF754FA28BB4FF40061174853
:10142C00FFF74EFA08BB4FF480511448FFF748FA07
:10143C00E8B94FF400511148FFF742FAC8B94FF41C
:10144C0080410E48FFF73CFAA8B94FF400410B4815
:10145C00FFF736FA00280CBF0020082008BD012039
:10146C0008BD022008BD032008BD042008BD0520CE
:10147C0008BD062008BD072008BD00BF00000240C3
:10148C0008B560B1002240210848FFF71FFA00227E
:10149C00BDE808404FF480710548FFF717BA0122E8
:1014AC0040210248FFF712FA0122F1E70004024042
:1014BC000008024008B50A4B1B780BB1032B0DD169
:1014CC004FF400710748FFF7FBF9012806D1064BD2
:1014DC0018700020BDE80840FFF7D2BF08BD00BF60
:1014EC0068000020000802406900002030B560232D
:1014FC0000240D4D85B001900422694628460093C6
:10150C0002940394FFF7F5FD2846084D0421FFF7DC
:10151C00EEFD224669462846FFF7EBFD214628469C
:10152C00FFF7E5FD05B030BD2C0000206C0000205D
:10153C0038B5FFF737FF0546FFF75CFF85420446D9
:10154C0013D0002202210A48FFF7C0F94FF4FA60C9
:10155C00FFF7CCFF0020FFF793FFFFF723FF844238
:10156C00FBD10222034B1A7038BD0322FAE700BFED
:10157C000000024069000020002373B50122022103
:10158C000D480193FFF7A2F9C820FFF7AFFF0B4CF2
:10159C000B4E40F2DB55019BAB4201D902B070BD42
:1015AC0031462046FEF7EEFE0028F4D12046FEF729
:1015BC003CFF0190EDE700BF00000240A8000020B6
:1015CC0040420F0008B5012202210548FFF77EF9C1
:1015DC00C820FFF78BFFBDE808400120FFF750BF84
:1015EC000000024008B5012202210548FFF76EF900
:1015FC000020FFF745FFBDE808400020FFF776BF4D
:10160C000000024008B50023054A06481370064A3C
:10161C001370FEF7F3FFBDE80840FFF7E3BF00BF10
:10162C0068000020A80000206900002038B50F4C8D
:10163C000F4DFFF7A1FEFFF73DFF21782878884278
:10164C0009D0032905D8DFE801F002070A0DFFF7DE
:10165C00C9FF2B78237038BDFFF76AFFF9E7FFF756
:10166C008BFFF6E7FFF7AEFFF3E700BF6800002043
:10167C006900002030B593B03422002105A800F099
:10168C008BFA00211422684600F086FA0E4A0024D8
:10169C001368012523F4C05343F400631360022341
:1016AC000593102305A8099308950E94FFF754F998
:1016BC000F23214668468DE8280002940394049475
:1016CC00FFF796FB13B030BD007000402DE9804849
:1016DC0091B0FEF773FDFFF7CDFF142200210BA88C
:1016EC0000F05AFA8A4B0221DA698A4842F0040265
:1016FC00DA61DA69002402F004020292029ADA69D1
:10170C00012642F00102DA61DA69102702F00102C7
:10171C000392039ADA69804D42F00202DA61DB69C6
:10172C00002203F002030493049BFFF7CFF800227E
:10173C004FF480717948FFF7C9F8002240217848AE
:10174C00FFF7C4F80F230BA974480B930C940D9658
:10175C00FEF7E8FF4FF601730BA96E480B930C9440
:10176C000D94FEF7DFFF02230BA96A480B930C962E
:10177C000D940E94FEF7D6FF08230B9303230BA9AD
:10178C0064480C930D94FEF7CDFF4FF470530BA9E6
:10179C0063480B930C940D94FEF7C4FF4FF4207325
:1017AC000BA95E480B930C940D94FEF7BBFF4FF402
:1017BC0080730BA959480B930C960D940E94FEF75D
:1017CC00B1FF40230BA956480B930C960D940E9425
:1017DC00FEF7A8FF3A46214607A800F0DDF93A4685
:1017EC0021460BA80594069400F0D6F94D4B40F217
:1017FC00CF7B2B604FF0800A9F234FF480592846F3
:10180C006B600193AC60C5F80CB02C61C5F814A0EA
:10181C00FFF726FC07A92846CDF81C90FFF7F1FC32
:10182C002846FFF738FC05A928464FF00408059414
:10183C000694FFF783FD602322460BA928460B93E1
:10184C000C940D94CDF83880FFF753FC284600F02B
:10185C00E9F83A46214607A8334D00F09DF9214698
:10186C003A460BA80594069400F096F92F4A019B72
:10187C0028462A606B60AC60C5F80CB02C61C5F8CA
:10188C0014A0FFF7EDFB07A92846CDF81C90FFF735
:10189C00B8FC2846FFF7FFFB05A9284605940694DB
:1018AC00FFF74CFD602342460BA928460B930C9482
:1018BC000D94CDF83880FFF71CFC28461C4D00F029
:1018CC00B1F81C4B284685E818000B940C940D9429
:1018DC00AC60EC602C616C61AC61EC612C6285F8E5
:1018EC002440AE6285F82C406F63AC6385F83C40B5
:1018FC00FEF786FC03230BA928460B930C960D943C
:10190C00FEF796FDFFF77EFEFFF790FEFCE700BFAB
:10191C0000380240000002406C0000200008024029
:10192C0000040240000801402C0000200008004088
:10193C00A8000020002401400F4B84B05A6A42F0EA
:10194C0000425A625A6A02F000420192019A1A6AE3
:10195C0042F001021A621A6A02F001020292029A21
:10196C005A6A42F080525A625B6A03F080530393C6
:10197C00039B04B0704700BF0038024010B504460A
:10198C0088B01422002103A800F006F92268104B3D
:10199C009A421BD103F58A331A6A03A942F40072E6
:1019AC001A621A6A0B4802F400720192019ADA69FF
:1019BC0042F00102DA61DB6903F001030293029B3E
:1019CC000823039303230493FEF7ACFE08B010BD69
:1019DC00002401400000024003680F4A82B0934289
:1019EC000BD10E4B5A6A42F004025A625B6A03F046
:1019FC0004030093009B02B07047094A9342FAD14A
:101A0C00064B1A6A42F004021A621B6A03F00403C2
:101A1C000193019BEFE700BF000800400038024033
:101A2C000008014010B5044688B01422002103A818
:101A3C0000F0B2F82368174A934214D1164B17489A
:101A4C00DA6903A942F00202DA61DB6903F00203EE
:101A5C000193019B80230393022304930793FEF7C6
:101A6C0061FE08B010BD0E4A9342FAD10A4B03A98D
:101A7C00DA690C4842F00102DA61DB6903F0010318
:101A8C000293029B042303930223049303230793DF
:101A9C00E5E700BF000800400038024000040240A7
:101AAC0000080140000002407047FEE7FEE7FEE739
:101ABC00FEE7704770477047FEF790BB0E4B1A68F5
:101ACC0042F480721A6099680C4A0A409A601A684B
:101ADC0022F0885222F001121A601A6822F4802235
:101AEC001A609A6822F47D029A600022DA604FF044
:101AFC000062034B9A607047003802400CC0FF88AC
:101B0C0000ED00E0002103E00B4B5B584350043127
:101B1C000A480B4B42189A42F6D30A4A02E00023B9
:101B2C0042F8043B084B9A42F9D3FFF7C7FF00F089
:101B3C000FF8FFF7CBFD7047F01B000800000020EA
:101B4C000C0000200C000020FC000020FEE7000030
:101B5C0070B500250C4E0D4CA41BA410A54209D148
:101B6C0000F022F800250A4E0A4CA41BA410A54232
:101B7C0005D170BD56F8253098470135EEE756F87B
:101B8C00253098470135F2E7E81B0008E81B0008F0
:101B9C00E81B0008EC1B000803460244934200D1EA
:101BAC00704703F8011BF9E7F8B500BFF8BC08BC97
:101BBC009E467047F8B500BFF8BC08BC9E467047FF
:101BCC0000000000000000000102030406070809E1
:0C1BDC00030406080C1018203000000064
:041BE800610100088F
:041BEC003D010008AF
:0C1BF000010000001000000068FF1F0052
:0400000508001B11C3
:00000001FF
