:020000040800F2
:1000000000400020AD1300085113000853130008EE
:10001000551300085713000859130008000000008A
:100020000000000000000000000000005B1300085A
:100030005D130008000000005F1300086113000852
:10004000F5130008F5130008F5130008F513000870
:10005000F5130008F5130008F5130008F513000860
:10006000F5130008F5130008F5130008F513000850
:10007000F5130008F5130008F5130008F513000840
:10008000F5130008F5130008F5130008F513000830
:10009000F5130008F5130008F5130008F513000820
:1000A000F5130008F5130008F5130008F513000810
:1000B000F5130008F5130008F5130008F513000800
:1000C000F5130008F5130008F5130008F5130008F0
:1000D000F5130008F5130008F5130008F5130008E0
:1000E000F5130008F5130008F5130008F5130008D0
:1000F000F5130008000000000000000000000000F0
:1001000000000000000000000000000000000000EF
:1001100000000000000000000000000000000000DF
:1001200000000000000000000000000000000000CF
:0C01300000000000000000005FF808F173
:10013C0010B5054C237833B9044B13B10448AFF315
:10014C0000800123237010BD0C0000200000000073
:10015C005014000808B5034B1BB103490348AFF317
:10016C00008008BD000000001000002050140008A2
:10017C0038B50F4B0546186808B9012038BD4FF447
:10018C007A73B3FBF0F30B4A1068B0FBF3F000F09A
:10019C007DF804460028F0D10F2DEED802462946F2
:1001AC004FF0FF3000F03EF8034B20461D6038BD89
:1001BC0000000020080000200400002010B50320DF
:1001CC0000F01EF80020FFF7D3FF044618B901F029
:1001DC002FF8204610BD0124FBE70000034A044918
:1001EC00136809680B441360704700BF2800002097
:1001FC0000000020014B1868704700BF2800002049
:10020C00074A0002D36800F4E06023F4E0631B04A7
:10021C001B0C43F0BF6343F400330343D3607047BC
:10022C0000ED00E0174B30B5DC68C4F30224C4F1D8
:10023C000703251D042B28BF0423062D4FF00105B1
:10024C0098BF002405FA03F303F1FF3388BF033C86
:10025C001940A14005FA04F4013C2240002842EA6E
:10026C0001024FEA0212A9BF00F16040064BD2B264
:10027C0000F56140BBBF00F00F00D2B280F8002344
:10028C001A5430BD00ED00E014ED00E00138B0F17F
:10029C00807F0AD2F021064B064A586082F8231060
:1002AC000020072298601A6070470120704700BF39
:1002BC0010E000E000ED00E000232DE9F04F624A71
:1002CC00D1F80080DFF8889185B038FA03F402D1B8
:1002DC0005B0BDE8F08F01249C4018EA0406019497
:1002EC0000F0A7804C6824F0100ABAF1020F16D166
:1002FC004FF00F0E4FEAD30C00EB8C0C03F0070BF6
:10030C00DCF820504FEA8B0B0EFA0BFE25EA0E0E92
:10031C000D6905FA0BF545EA0E05CCF820500325BE
:10032C004FEA430C05FA0CF5ED43D0F800B004F09D
:10033C00030E0BEA050B0EFA0CFE0AF1FF3A4EEA1D
:10034C000B0EBAF1010FC0F800E016D8D0F808E097
:10035C00CF6805EA0E0E07FA0CFA4AEA0E0EC0F840
:10036C0008E0D0F804E0019F2EEA0707C4F3001E52
:10037C000EFA03FE4EEA07074760C7683D408F68D8
:10038C0007FA0CF73D43C560E50052D54FF00F0E50
:10039C00D9F8205023F0030745F00105C9F8205087
:1003AC00D9F8205007F1804705F00105039507F5B2
:1003BC00803703F0030C039D4FEA8C0CBD680EFADA
:1003CC000CFE25EA0E0E214DA84234D005F58065B1
:1003DC00A84232D005F58065A84230D005F580657D
:1003EC00A8422ED005F58065A84214BF052504252A
:1003FC0005FA0CF545EA0E05BD60F743156814F4D3
:10040C00803F0CBF3D4035431560556814F4003FE8
:10041C000CBF3D4035435560956814F4801F0CBFEC
:10042C003D4035439560D568A40254BF3D403543EB
:10043C00D560013349E70025DAE70125D8E7022525
:10044C00D6E70325D4E700BF0004014000000240BA
:10045C00003802400AB1816170470904FBE70000D3
:10046C001C4B82B09A6812F0F00F0CD000221A4983
:10047C000B6823F0010313430B60086800F00100C4
:10048C00504002B070475A6A144912F0805F0FD086
:10049C000A6802F4C052B2F5C05FE7D1B0F5404F24
:1004AC00E4D10D4A136843F0040313600122DEE724
:1004BC005A6A42F080525A625A6A02F08052019291
:1004CC00019A0A68596A02F4C05221F080515962AB
:1004DC00E1E700BF00380240003C024000700040E1
:1004EC002DE9F743044608B9012077E0A04B0268D8
:1004FC009E689F68D00706F00C0607F480374BD433
:10050C002368990700F192802368D80636D5002E0F
:10051C0040F0DC80964D2B68990502D5A369002B21
:10052C00E2D06B68206A03F46043984240F2BC80CE
:10053C00FFF796FF0028D7D16B68226A23F460433B
:10054C0013436B606B68E26923F07F4343EA0263F9
:10055C006B60874B9968236A5B0B5A1C4FF4004302
:10056C009340C1F3031283498A5CD340824A1360DF
:10057C00824B1868FFF7FCFD00282FD12368180761
:10058C0000F1D3802368590700F10081606A0028CC
:10059C0040F06A81002021E0082E02D00C2E07D1F9
:1005AC0037B11B689A03ABD56368002BA8D19BE7C6
:1005BC0063686F4D012B14D12B6843F480332B608F
:1005CC00FFF718FE80466A4D2B689B0398D4FFF703
:1005DC0011FEA0EB08006428F6D9032003B0BDE897
:1005EC00F083ABB92B6823F480332B602B6823F496
:1005FC0080232B60FFF7FEFD80462B6898037FF568
:10060C007FAFFFF7F7FDA0EB08006428F5D9E4E70E
:10061C00052B2B6803D143F480232B60CCE723F408
:10062C0080332B602B6823F48023C8E7042E02D080
:10063C000C2E10D17FB94E4B1A68910703D5E26886
:10064C00012A7FF451AF5A68216922F4F85242EA28
:10065C0001225A6058E7E268494BB2B101221A6094
:10066C00FFF7C8FD0746424D2B689A0707D56B6804
:10067C00226923F4F85343EA02236B6044E7FFF743
:10068C00B9FDC01B0228EFD9A7E71A60FFF7B2FD2E
:10069C000746374D2B689B077FF536AFFFF7AAFD52
:1006AC00C01B0228F6D998E76B6823F46043034318
:1006BC006B606B68E26923F07F4343EA02636B6013
:1006CC00FFF7CEFE00283FF444AF0DE7A2692D4B97
:1006DC00E2B101221A60FFF78DFD0746244D2B680D
:1006EC009A050DD56B68226A23F4604313436B6043
:1006FC006B68E26923F07F4343EA02636B603DE77A
:10070C00FFF778FDC01B0228E9D966E71A60FFF7EE
:10071C0071FD0746164D2B689B057FF52FAFFFF734
:10072C0069FDC01B0228F6D957E76269164B7AB1EE
:10073C0001221A60FFF75EFD07460D4D6B6B9A07A1
:10074C003FF520AFFFF756FDC01B0228F6D944E752
:10075C001A60FFF74FFD0746054D6B6B9B077FF546
:10076C0011AFFFF747FDC01B0228F6D935E700BFD4
:10077C000038024068140008080000200400002023
:10078C00000047422000474280064742604B5A6AAD
:10079C00D00029D401275A6A42F080525A625B6A0F
:1007AC0003F080530193019B5A4D2B68D9051DD53D
:1007BC00A368574D012B2AD16B6B43F480736B6389
:1007CC00FFF718FD41F288358146DFF84481D8F8EF
:1007DC0034309B0541D5002F3FF4D8AE4C4A536AB8
:1007EC0023F080535362D1E60027DDE72B6843F4F6
:1007FC0080732B60FFF7FEFC80462B68DA05D7D49C
:10080C00FFF7F8FCA0EB08006428F6D9E5E6B3B9CD
:10081C006B6B41F2883923F480736B636B6B23F43D
:10082C0080636B63FFF7E6FC80466B6B9805D2D553
:10083C00FFF7E0FCA0EB08004845F6D9CDE6052B08
:10084C006B6B03D143F480636B63B5E723F4807364
:10085C006B636B6B23F48063B1E7FFF7CBFCA0EB0E
:10086C000900A842B3D9B8E60C2E39D000232A4D82
:10087C0002282B6026D1FFF7BDFC0746244E3368B7
:10088C00990119D4A36AE16AB2680B4322F47D0280
:10089C001343226B1E4C1343B36001232B60FFF7F1
:1008AC00A9FC054623689A013FF574AEFFF7A2FC3C
:1008BC00401B0228F6D990E6FFF79CFCC01B0228CF
:1008CC00DDD98AE6FFF796FC0546114C23689B019F
:1008DC007FF560AEFFF78EFC401B0228F6D97CE654
:1008EC0001283FF47BAE0A4B9868A36A00F480326F
:1008FC009A427FF4F9ADE26A00F4701393427FF4EC
:10090C00F3AD236B00F44000C01A18BF012065E65C
:10091C00003802400070004060004742124A936861
:10092C0003F00C01082905D00C2905D0042913D19A
:10093C000E4870470E4870470E48C3F38341415C24
:10094C00C3F3815093680130DB034CBF084B074B5A
:10095C004B43B3FBF0F070475068C0F34230431C7C
:10096C004FF4004098407047003802400024F400D7
:10097C0000366E01781400082DE9F0410D4604464E
:10098C0010B90120BDE8F081574B1A6802F0010242
:10099C008A422AD32268960738D4D0073ED4524BC9
:1009AC001A6802F001029542C0F08D80226851074E
:1009BC0000F19280130707D54C4A2169936823F400
:1009CC00605343EAC1039360FFF7A8FFBDE8F04111
:1009DC00464B474A9B68C3F30313D35CD840454B43
:1009EC001860454B1868FFF7C3BB012902BF1A6892
:1009FC0042F004021A601A6822F001020A431A60DB
:100A0C001B6803F001039942BBD1C3E73749A068C7
:100A1C008B6823F0F00303438B60BEE76168334BB4
:100A2C0002291A681DD112F4003FAAD09A682F4FE0
:100A3C0022F003020A439A60FFF7DCFB6368064668
:100A4C00022B41F2883819D1BB6803F00C03082B38
:100A5C00A5D0FFF7CFFB801B4045F5D90320BDE89F
:100A6C00F081032902D112F0007FDEE7012902D1C7
:100A7C0012F0020FD9E712F4007FD6E7032B0AD14C
:100A8C00BB6803F00C030C2B89D0FFF7B3FB801B66
:100A9C004045F5D9E2E7012B10D1BB6803F00C03FC
:100AAC00042B3FF47CAFFFF7A5FB801B4045F4D92A
:100ABC00D4E7FFF79FFB801B4045CFD8BB6813F0F2
:100ACC000C0FF6D16BE71A6822F001021A601B6852
:100ADC00DA073FF556AF69E70449E0688B6823F401
:100AEC00E06303438B6065E7003C02400038024042
:100AFC00681400080800002004000020B0F1804FAA
:100B0C00036806D0184A904203D002F580629042E6
:100B1C000ED14A6823F07003B0F1804F43EA020310
:100B2C0011D0114A90420ED002F5806290420AD048
:100B3C000E4A904207D002F58062904203D002F533
:100B4C008062904203D1CA6823F4407313430A694C
:100B5C0023F08003134303608B68C3620B688362CA
:100B6C0001234361704700BF0004004000080140AE
:100B7C00036A30B523F001030362036A4468826997
:100B8C000D6822F073022A438D6823F0020344603F
:100B9C0082614A682B434263036230BD036A30B5FD
:100BAC0023F010030362036A446882690D6822F41F
:100BBC00E64242EA05228D6823F0200344608261FC
:100BCC004A6843EA05138263036230BD10B5012401
:100BDC00036A01F01F018C4023EA04030362036AD9
:100BEC008A401A43026210BD10B50446A0B190F8B9
:100BFC00393003F0FF021BB980F8382000F03AFBC3
:100C0C000223206884F83930211DFFF777FF012378
:100C1C00002084F8393010BD012010BD704710B58C
:100C2C000446A0B190F8393003F0FF021BB980F8EC
:100C3C003820FFF7F3FF0223206884F83930211D98
:100C4C00FFF75CFF0123002084F8393010BD012030
:100C5C0010BD10B5044601220068FFF7B7FF2368EA
:100C6C0000209A6802F00702062A1EBF1A6842F09A
:100C7C0001021A6010BDFFF7ECBF90F8383070B568
:100C8C00012B05460C464FF0020025D0012385F8B8
:100C9C00390085F838300C2A18D8DFE802F007172D
:100CAC0017171E1717172F17171752002868FFF75B
:100CBC005FFF2B68C9689A6942F008029A619A69C9
:100CCC0022F004029A619A690A439A610123002076
:100CDC0085F8393085F8380070BD2868FFF75EFF5D
:100CEC002B68C9689A6942F400629A619A6922F485
:100CFC0080629A619A6942EA0122E6E72B682668CB
:100D0C001A6A22F480721A621A6A5868D96922F433
:100D1C00007221F073013143A6685860D961616893
:100D2C0042EA0622D9631A62DA69E16842F00802E3
:100D3C00DA61DA6922F00402DA61DA690A43DA610B
:100D4C00C4E72B6826681A6A22F480521A621A6A5F
:100D5C005868D96922F4005221F4E64141EA06218F
:100D6C00A6685860D961616842EA063219641A6251
:100D7C00DA69E16842F40062DA61DA6922F48062CD
:100D8C00DA61DA6942EA0122D9E790F8383070B5B5
:100D9C00012B4FF0020319D0012280F8393003687F
:100DAC0080F838209A6822F47F4222F077029A6009
:100DBC000A68402A6FD016D8102A0DD008D85AB11C
:100DCC00012380F83930002380F83830184670BD84
:100DDC00202A01D0302AF3D1996842F0070221F081
:100DEC0070010A433DE0602A3DD018D8502AE7D163
:100DFC004C68CE68196A1D6A21F00A0125F00105BC
:100E0C001D629A69214322F0F00242EA06129A61AD
:100E1C0019629A6822F0700242F0570221E0702A9F
:100E2C0011D0B2F5005FCBD18A684D689C68C96857
:100E3C002A4324F47F4442EA012222439A609A68AE
:100E4C0042F480420DE08A684D689C68C9682A4368
:100E5C0024F47F4442EA012222439A609A6842F0C9
:100E6C0077029A60ACE71C6A4D6824F01004CE68D7
:100E7C001C6299691A6A21F4704122F0A00242EABC
:100E8C00051241EA063199611A629A6822F07002E1
:100E9C0042F06702E5E74C68CE68196A1D6A21F0DA
:100EAC000A0125F001051D629A69214322F0F00226
:100EBC0042EA06129A6119629A6822F0700242F0B4
:100ECC004702CEE790F8383030B5012B4FF00203D3
:100EDC0014D0046880F839306268A3680D684968DA
:100EEC0022F0700223F080030B432A436260A3605C
:100EFC00012380F83930002380F83830184630BD93
:100F0C0030B5602300240D4D85B001900422694654
:100F1C002846009302940394FFF7AFFE2846084D31
:100F2C000421FFF7A8FE224669462846FFF7A5FED6
:100F3C0021462846FFF79FFE05B030BD2C0000204F
:100F4C006C00002008B5012202210648FFF782FA46
:100F5C00054801224021FFF77DFABDE80840C82072
:100F6C00FFF7CEBF000002400004024008B501228A
:100F7C0002210648FFF76EFA054800224021FFF7D0
:100F8C0069FABDE808400020FFF7BABF0000024034
:100F9C00000402400023034A1370034A1370FFF746
:100FAC00E5BF00BF6800002069000020074B084A1D
:100FBC001B7812789A4207D013B1032B02D07047DA
:100FCC00FFF7D4BFFFF7BEBF704700BF680000201B
:100FDC006900002030B593B03422002105A800F040
:100FEC0029FA00211422684600F024FA0E4A002443
:100FFC001368012523F4C05343F4006313600223E8
:10100C000593102305A8099308950E94FFF768FA29
:10101C000F23214668468DE828000294039404941B
:10102C00FFF7AAFC13B030BD007000402DE98048DA
:10103C008FB0FFF7C3F8FFF7CDFF1422002109A8EA
:10104C0000F0F8F9724B0221DA69724842F00102A1
:10105C00DA61DA69002402F001020092009ADA697E
:10106C00012542F00202DA61DA694FF09F0B02F0BF
:10107C0002020192019ADA6940F2CF7A42F004023C
:10108C00DA61DB69002203F004030293029BFFF791
:10109C00E1F900224FF480715F48FFF7DBF9002281
:1010AC0040215E48FFF7D6F94FF6017309A959485C
:1010BC0009930A940B94FFF7FFF8022309A95548EA
:1010CC0009930A950B940C94FFF7F6F808230993EF
:1010DC00032309A94F480A930B94FFF7EDF84FF43B
:1010EC00705309A94D4809930A940B94FFF7E4F83F
:1010FC004FF4807309A9484809930A950B940C94F2
:10110C00FFF7DAF84FF4007309A9434809930A94DE
:10111C000B94FFF7D1F840234FF080094FF480581F
:10112C000426602709A93D4809930A950B940C9451
:10113C00FFF7C2F81022214605A8394D00F07AF9C4
:10114C001022214609A80394049400F073F9354B3E
:10115C00284685E80808AC60C5F80CA02C61C5F8D9
:10116C001490FFF741FD05A92846CDF81480FFF730
:10117C000CFE2846FFF753FD03A92846039404945C
:10118C00FFF7A0FE224609A9284609970A940B945A
:10119C000C96FFF772FD284600F092F810222146BB
:1011AC0005A8214D00F046F91022214609A8039408
:1011BC00049400F03FF91D4B284685E80808AC6004
:1011CC00C5F80CA02C61C5F81490FFF70DFD05A90E
:1011DC002846CDF81480FFF7D8FD2846FFF71FFDF1
:1011EC0003A9284603940494FFF76CFE324609A920
:1011FC00284609970A940B940C96FFF73EFD284657
:10120C0000F05EF8FFF7C6FEFFF7D0FEFCE700BF6C
:10121C000038024000000240000802400004024076
:10122C006C000020000801402C0000200008004049
:10123C000F4B84B05A6A42F000425A625A6A02F06A
:10124C0000420192019A1A6A42F001021A621A6A69
:10125C0002F001020292029A5A6A42F080525A62D9
:10126C005B6A03F080530393039B04B0704700BF89
:10127C000038024003680F4A82B093420BD10E4BE8
:10128C005A6A42F004025A625B6A03F00403009348
:10129C00009B02B07047094A9342FAD1064B1A6A76
:1012AC0042F004021A621B6A03F004030193019BCF
:1012BC00EFE700BF00080040003802400008014082
:1012CC0010B5044688B01422002103A800F0B2F82F
:1012DC002368174A934214D1164B1748DA6903A9AD
:1012EC0042F00202DA61DB6903F002030193019B15
:1012FC0080230393022304930793FEF7DDFF08B0CA
:10130C0010BD0E4A9342FAD10A4B03A9DA690C4874
:10131C0042F00102DA61DB6903F001030293029BE4
:10132C00042303930223049303230793E5E700BFED
:10133C000008004000380240000402400008014050
:10134C00000002407047FEE7FEE7FEE7FEE770474D
:10135C0070477047FEF742BF0E4B1A6842F480721A
:10136C001A6099680C4A0A409A601A6822F08852EE
:10137C0022F001121A601A6822F480221A609A680C
:10138C0022F47D029A600022DA604FF00062034B77
:10139C009A607047003802400CC0FF8800ED00E0F6
:1013AC00002103E00B4B5B58435004310A480B4BB4
:1013BC0042189A42F6D30A4A02E0002342F8043B50
:1013CC00084B9A42F9D3FFF7C7FF00F00FF8FFF76D
:1013DC002DFE70478C140008000000200C0000202B
:1013EC000C000020A8000020FEE7000070B50025CE
:1013FC000C4E0D4CA41BA410A54209D100F022F8F0
:10140C0000250A4E0A4CA41BA410A54205D170BDA0
:10141C0056F8253098470135EEE756F825309847B1
:10142C000135F2E7841400088414000884140008C1
:10143C008814000803460244934200D1704703F815
:10144C00011BF9E7F8B500BFF8BC08BC9E46704715
:0C145C00F8B500BFF8BC08BC9E46704705
:10146800000000000000000001020304060708094C
:0C147800030406080C10182030000000CF
:0414840061010008FA
:041488003D0100081A
:0C148C00010000001000000068FF1F00BD
:04000005080013AD2F
:00000001FF
